:040000008031132810
:100008007E1480312000911C0A280B281128911099
:100018000130F00070082100B9077E100900803116
:10002800152865308400A5308500E530860000304D
:1000380087000B308731F9278031DB308400A73007
:100048008500483086000130870025308731F92740
:100058008031FC015D308400003085000930A53115
:100068004E258031A0308400003085004530A53110
:100078004E25803120308400013085002830A5319C
:100088004E2580317E102000913136290330200022
:100098006206031950285128FE2B05306206031DFD
:1000A800562857285828FE2B2100310803195D28A7
:1000B8005E2861280130B102FE2B9D3193258031E5
:1000C8009031342080312100320803196C286D28C2
:1000D800E62B3B08803A2000BD0080303D02031D1E
:1000E80078280A3021003A0203187B287C28E62B5E
:1000F80004302000BD003D08E200FE2B21003B0833
:10010800803A2000BD0080303D02031D8E280A3051
:1001180021003A02031C91289228FE2B0A30200065
:10012800BD003D082100B20002302000BD003D089E
:10013800E200E7302100AA000330AB00E730A80056
:100148000330A900E730A6000330A700FC01200017
:10015800E1010230BD003D082100B100FE2B210065
:100168003F08803A2000BD0021003D08803A200069
:100178003D02031DC22821003C083E02031CC5287D
:10018800C628CC2805302000BD003D08E200FE2B23
:1001980021003D08803A2000BD0021002908803A4E
:1001A80020003D02031DDB28210028083C0203181B
:1001B800DE28DF28E42821003D08A9003C08A80023
:1001C80021003D08803A2000BD0021002B08803A1C
:1001D80020003D02031DF32821002A083C020318D1
:1001E800F628F7280C2921003D08AB003C08AA0096
:1001F80020006108BD003D08E0007C08BD003D0806
:10020800DF00210055082000BD003D082100B00096
:1002180001302000BD003D08E1070B3061020318E2
:10022800162917293F291430F1000030F200210067
:100238002908F4002808F3009E314A26803121005D
:10024800280871072000BD0021002908723D200000
:10025800BE003E08803ABF0021003D08803A2000D9
:100268003F02031D3B2921003C0820003D020318E2
:100278003E293F29A5292000E1010130BD003D08A4
:10028800FC071430F1000030F20021002708F400C8
:100298002608F3009E314A2680312100260871077E
:1002A8002000BD0021002708723D2000BE003E0846
:1002B800803ABF0021002908803A20003F02031D30
:1002C80069292100280820003D0203186C296D299E
:1002D800892921005503031D722973297A291430AD
:1002E8002000BD003D082100B200FE2BD501D50A33
:1002F8002000E101FC01E7302100A8000330A9003B
:10030800E730A6000330A7008E2921002908A7009E
:100318002808A600E730A8000330A9000B307C02AB
:10032800031C97299829A529FC01E730A800033068
:10033800A9005503031DA129A229A3297329D501C1
:10034800D50A20006108273E8400A8300318013E22
:1003580085000008BD003D082100D6007C081C3E31
:100368008400A8300318013E850000082000BD0065
:100378003D082100D7009031B420803102302000A0
:10038800BD003D082100B100FE2B210030082000EF
:10039800BD003D082100D50020006008273E8400EC
:1003A800A8300318013E85000008BD003D08210063
:1003B800D60020005F081C3E8400A8300318013EC8
:1003C80085000008BD003D082100D7002000600816
:1003D800273E8400A8300318013E85000008BD00B0
:1003E8003D082100A40020005F081C3E8400A830BE
:1003F8000318013E85000008BD003D082100A1004A
:10040800200060080319092A0A2A232A6008263EC0
:100418008400A8300318013E85000008BD0060086C
:10042800273E8400A8300318013E85000008BE005E
:100438003D083E02BF003F082100AF00252A2100E9
:10044800AF010A302000600203182B2A2C2A452A03
:100458006008273E8400A8300318013E8500000884
:10046800BD006008283E8400A8300318013E8500BE
:100478000008BE003D083E02BF003F082100AE0054
:10048800472A2100AE0120005F0803194C2A4D2A93
:10049800662A5F081B3E8400A8300318013E8500C9
:1004A8000008BD005F081C3E8400A8300318013E08
:1004B80085000008BE003D083E02BF003F0821003D
:1004C800AD00682A2100AD010A3020005F02031840
:1004D8006E2A6F2A882A5F081C3E8400A8300318F9
:1004E800013E85000008BD005F081D3E8400A8305D
:1004F8000318013E85000008BE003D083E02BF000B
:100508003F082100AC008A2A2100AC010230F1002A
:100518000030F2002F082000BD00BE013D08F300A6
:100528003E08F4009E314A26803171082000BF0041
:100538003F082100AF000230F1000030F2002E0821
:100548002000BD00BE013D08F3003E08F4009E31C6
:100558004A26803171082000BF003F082100AE0004
:100568000230F1000030F2002D082000BD00BE016D
:100578003D08F3003E08F4009E314A268031710898
:100588002000BF003F082100AD000230F10000301C
:10059800F2002C082000BD00BE013D08F3003E0813
:1005A800F4009E314A26803171082000BF003F08C0
:1005B8002100AC002F0824022000BD003D082100C6
:1005C800A30024082E072000BD003D082100A50037
:1005D8002D0821022000BD003D082100A0002108AF
:1005E8002C072000BD003D082100A200E730AA002A
:1005F8000330AB002000E101E10AFC01FC0A210004
:1006080024082000BD003D082100D6002108200054
:10061800BD003D082100D7009031B4208031023060
:100628002000BD003D082100B1001E302000BD00A3
:100638003D082100B200FE2B21003F08803A20002F
:10064800BD0021003D08803A20003D02031D2F2BEC
:1006580021003C083E02031C322B332B342BC628C6
:1006680021003D08803A2000BD0021002B08803A77
:1006780020003D02031D432B21002A083C020318D9
:10068800462B472B552B21003D08AB003C08AA0000
:1006980020006108BD003D08E0007C08BD003D0861
:1006A800DF0020006103031D5A2B5B2B712B2100F7
:1006B800240823060319612B622B652B2000E10116
:1006C800AB2B2508240603196A2B6B2B712B0230E0
:1006D8002000BD003D08E100AB2B20006108031D90
:1006E800762B772B7F2B21002508240603197D2BD9
:1006F8007E2B7F2B6B2B2000E101E10A7C03031D7D
:10070800862B872B972B21002108200603198D2B78
:100718008E2B902BFC01AB2B220821060319952B5D
:10072800962B972B6B2B7C08031D9B2B9C2BA92BA3
:100738002100220821060319A22BA32BA92B023082
:100748002000BD003D08FC00AB2BFC01FC0A20008A
:100758006103031DB02BB12BCD2B7C03031DB52BDF
:10076800B62BCD2B6008A33E860087010108BD008B
:100778003D082100D60020005F08A03E86008701C2
:100788000108BD003D082100D7009031B420803118
:10079800C6286108A33E860087010108BD003D0800
:1007A8002100D6007C08A03E8600870101082000B1
:1007B800BD003D082100D700BF290330BD003D081A
:1007C800E200FE2B210032082000BD00BE013E08D9
:1007D800003A0319F02BE12B3D08003A031982284F
:1007E8000A3A0319B3281E3A0319C9290A3A031900
:1007F800202BE12B0800003400340034003400348E
:10080800003400345F3400340034003407340034DA
:100818000734003414347F3414347F3414342434CB
:100828002A347F342A341234233413340834643499
:100838006234363449345534223450340034053463
:1008480003340034003400341C342234413400347E
:100858000034413422341C34003408342A341C3423
:100868002A340834083408343E3408340834003450
:100878005034303400340034083408340834083430
:100888000834003430343034003400342034103428
:100898000834043402343E345134493445343E3447
:1008A800003442347F3440340034423461345134AB
:1008B800493446342134413445344B3431341834C6
:1008C800143412347F3410342734453445344534D5
:1008D80039343C344A34493449343034013471347D
:1008E8000934053403343634493449344934363408
:1008F80006344934493429341E3400343634363405
:1009080000340034003456343634003400340034B3
:100918000834143422344134143414341434143460
:100928001434413422341434083400340234013489
:1009380051340934063432344934793441343E343C
:100948007E341134113411347E347F3449344934BF
:10095800493436343E3441344134413422347F34CE
:100968004134413422341C347F34493449344934C5
:1009780041347F3409340934013401343E3441347C
:100988004134513432347F340834083408347F34E5
:10099800003441347F34413400342034403441340D
:1009A8003F3401347F3408341434223441347F34E2
:1009B80040344034403440347F3402340434023408
:1009C8007F347F340434083410347F343E34413467
:1009D800413441343E347F3409340934093406340F
:1009E8003E344134513421345E347F34093419346F
:1009F800293446344634493449344934313401348D
:100A080001347F34013401343F34403440344034BD
:100A18003F341F342034403420341F347F34203492
:100A2800183420347F346334143408341434633471
:100A3800033404347834043403346134513449348D
:100A480045344334003400347F3441344134023473
:100A58000434083410342034413441347F340034B1
:100A68000034043402340134023404344034403451
:100A78004034403440340034013402340434003407
:100A8800203454345434543478347F34483444341F
:100A980044343834383444344434443420343834D6
:100AA8004434443448347F3438345434543454341B
:100AB800183408347E3409340134023408341434C8
:100AC800543454343C347F34083404340434783493
:100AD800003444347D3440340034203440344434C9
:100AE8003D34003400347F34103428344434003426
:100AF80041347F34403400347C34043418340434B2
:100B080078347C3408340434043478343834443445
:100B18004434443438347C341434143414340834AD
:100B280008341434143418347C347C3408340434D1
:100B38000434083448345434543454342034043499
:100B48003F344434403420343C344034403420343E
:100B58007C341C342034403420341C343C3440343D
:100B6800303440343C344434283410342834443449
:100B78000C345034503450343C3444346434543499
:100B88004C344434003408343634413400340034AE
:100B980000347F34003400340034413436340834AF
:100BA8000034083408342A341C34083408341C341B
:100BB8002A3408340834FB3020006406031DE52D70
:100BC800E62DF12D21005808013A2000C9004908F6
:100BD8002100D8009F3189278531503020006406D4
:100BE800031DF72DF82D672E2830E4022100580840
:100BF800031DFF2D002E632E023059020318052E07
:100C0800062E632E5935DA3E86008701403F2000C4
:100C1800D300413FD4005408803AC90080304902CB
:100C2800031D182E6430530203181B2E1C2E222E6F
:100C380005302000D3070030D43D272E3230200065
:100C4800D3070030D43D21005908031D2C2E2D2E2A
:100C58003F2E20005408803AC90080304902031D05
:100C6800372E65305302031C3A2E3B2E552E20009A
:100C7800D301D401552E20005408803AC90083308E
:100C88004902031D492EE9305302031C4C2E4D2EF8
:100C9800552E21005B082000D40021005A082000AE
:100CA800D30021005935DA3E860087012000530819
:100CB800C03F5408C13F9F3189278531672EA53130
:100CC8005C258531972F02302100590203186D2EBB
:100CD8006E2EA62E5408803A2000C90080304902A2
:100CE800031D792E653021005302031C7C2E7D2EB6
:100CF800922F210063085406031D842E62085306B0
:100D0800031D872E882E922F5935DE3E86008701D7
:100D18005308C03F5408C13F983104208531200052
:100D2800A001A00AED30A100A930A200A3018030E3
:100D38008E317E26853102302000C9004908210005
:100D4800D907922F5408803A2000C9008030490200
:100D5800031DB12E0530210053020318B42EB52E01
:100D6800922F01302100D9025903031DBC2EBD2E3C
:100D7800C42E9831042085319F3189278531922FDF
:100D88005B08CA005A08C9005D08CC005C08CB00A3
:100D98004A082000B300210049082000B20095311C
:100DA8004125853120003308D2003208D1002100C6
:100DB8004C082000B30021004B082000B2009531F8
:100DC8004125853120003308D0003208CF00063095
:100DD800D83E860087010830D83E84008501403F10
:100DE8000002A4000131413F003BA500A601A51B5C
:100DF800A6032608A70051084F02C9005208503B15
:100E0800CA004908CB004A08CC000030CC1BFF3090
:100E1800CD00CE000C30CB35CC0DCD0DCE0D890BD1
:100E28000F2F4E08AB004D08AA004C08A9004B082C
:100E3800A8009231D3228531200025082100D00056
:100E4800200024082100CF0000302000A700003037
:100E5800A6001030A5000030A40021004F08F100C2
:100E68005008F200890D893B8909F300F4005E08F7
:100E7800F5005F08F600890D893B8909F700F8003D
:100E88009931D621853174082000AB007308AA0077
:100E98007208A9007108A8009231D3228531200078
:100EA800240851022100CD0020002508523B2100D2
:100EB800CE00C9302000C9004908F5000230CA0038
:100EC8004A08F6006A30A73195278531CB302000D3
:100ED800C9004908F5000230CA004A08F60068301F
:100EE800A73195278531CD302000C9004908F50084
:100EF8000230CA004A08F6006630A73195278531C6
:100F0800CF302000C9004908F5000230CA004A085D
:100F1800F6006430A73195278531632E21005408E7
:100F2800E3005308E20008002000BE00BF01BF0A2A
:100F38003A08803ABC0080303C02031DA52F64307B
:100F48003902031CA82FA92FBB2F0A30F10000304B
:100F5800F20020003A08F4003908F3009E314A26CE
:100F6800873172082000BA007108B900BF0120005B
:100F78003A08A1003908A0004030BC003C08A20093
:100F88000430BD003D08A3008831002087312000CF
:100F98003F080319D02FD12FE32F4108BC003C088C
:100FA800C00020304006031DDA2FDB2FDF2F303042
:100FB800BC003C08C0002E30BC003C08C1005730C3
:100FC800BC003C08C300C4013808BC003C08A000B1
:100FD8004030A1000030A2003B08BD003D08A3003E
:100FE8003E088E317E2687310800FE0012001E0062
:060FF800FE0BFA2F00348D
:101000002000A40102302302031807280828092819
:101010008A282308FF3EFA007A08A500220825073F
:10102000FA007A08A6002608860087018101A11F20
:101030001A281B282228A401A40AA009A109A00A91
:101040000319A10A0130A5020130A6022108803A45
:10105000FA0080307A02031D2F2801302002031C81
:101060003228332859280A30F1000030F2002000DD
:101070002108F4002008F3009D31402588317108D3
:10108000303EFA0020002608860087017A08810099
:101090000A30F1000030F2002108F4002008F300CB
:1010A0009E314A26883172082000A1007108A000F4
:1010B000852820002308FE3EFA00FF300318003088
:1010C000FB0025087A067B04031D67286828702822
:1010D0003030FA002608860087017A0881008528CA
:1010E00024080319742875287E282D30FA00260854
:1010F000860087017A088100A40185282030FA0043
:101100002608860087017A0881002508031D8928A2
:101110008A282228080002302000C5004508D20095
:101120000330C5004508D300B80121003B0820006A
:10113000BA0021003A082000B900BB010430873111
:10114000982788312000B801B80A21003D08200006
:10115000BA0021003C082000B900BB0104309C31DA
:10116000AD248831210055080319B728B828C128B3
:1011700003302000C5004508D2000230C5004508F4
:10118000D30021004603031DC628C728D7280330F3
:101190002000C5004508A000F630A100A830A2003C
:1011A000A301A30A00308E317E2688312129200038
:1011B0005208C5004508A000F030A100A930A200E7
:1011C000A30100308E317E26883107302000C50013
:1011D0004508A7004B309A310C2288312000520874
:1011E000C5004508A0004B30A1000030A200A301BB
:1011F00002308E317E26883120005308C500450814
:10120000A000F330A100A930A200A30100308E316C
:101210007E26883107302000C5004508A7004B30E6
:101220009A314322883120005308C5004508A000A8
:101230004B30A1000030A200A30102308E317E2687
:10124000883121004203031D2629272955294603F9
:1012500003192B292C295529CA302000C900A9308F
:10126000CA00D4015408C5004508B8004A08C700A0
:101270004908C60054084607840047080318470A6F
:1012800085000008C8004808B900BA010930A63135
:10129000B426883101302000C5004508D407043049
:1012A0005402031C54295529322908002000C20188
:1012B000B8014208DD3E860087010108BE003E08F5
:1012C000B9002100590820004206031968296A293B
:1012D00001306B290030BF003F08BA004208023ECF
:1012E000A631B426893101302000BE003E08C20775
:1012F00008304202031C7D297E295829083021002C
:101300005902031884298529E0295908DD3E860001
:10131000870101082000BE003E08C000C2019429D8
:101320000130BE003E08C2074208003E8400A030E3
:101330000318013E8500000840060319A029A129D1
:10134000A72949304202031CA629A7299029B801E0
:10135000B80A4008BE003E08B900BA01BA0A023015
:10136000A631B42689312000C101C10A0130BE0076
:101370003E08C20748304202031CBF29C029C129C8
:10138000C201B801B80A4208003E8400A030031828
:10139000013E85000008BE003E08B900BA014108C0
:1013A000023EA631B426893101302000BE003E083D
:1013B000C10708304102031CDE29DF29B629EC29C8
:1013C0002000A001A00A6930A100A830A200A3015A
:1013D00000308E317E26893103302000BE003E0869
:1013E000A000BB30A100A930A2000830210059069E
:1013F0000319FB29FD290130FE2900302000BF0020
:101400003F08A30000308E317E2689310330200052
:10141000BE003E08A000E130A100A930A2000930C2
:10142000210059060319152A172A0130182A0030FD
:101430002000BF003F08A30007308E317E2689318F
:101440000800210058082000B8003808C500C30172
:10145000C30A0230B8003808C40021005508031937
:10146000322A332A3A2A02302000B8003808C30052
:10147000C401C40A20004308B8003808A000F030B6
:10148000A100A930A200A30100308E317E268A314E
:1014900007302000B8003808A7003C309A310C22F1
:1014A0008A3120004308B8003808A0003C30A10071
:1014B0000030A2004308FF3EB900FF30031800309F
:1014C000BA00450839063A040319672A692A013027
:1014D0006A2A0030BB003B08A30004308E317E2610
:1014E0008A3120004408B8003808A000F330A10079
:1014F000A930A200A30100308E317E268A31073048
:101500002000B8003808A7003C309A3143228A31C5
:1015100020004408B8003808A0003C30A10000308A
:10152000A2004408FF3EB900FF3003180030BA00A3
:10153000450839063A0403199E2AA02A0130A12A37
:101540000030BB003B08A30004308E317E268A3178
:1015500021005508031DAD2AAE2AC72A03302000FA
:10156000B8003808A000D430A100A930A200023091
:1015700045060319BC2ABE2A0130BF2A0030B90033
:101580003908A30000308E317E268A31DF2A0330ED
:101590002000B8003808A000CF30A100A930A20078
:1015A000023045060319D52AD72A0130D82A00303F
:1015B000B9003908A30000308E317E268A3103300D
:1015C0002000B8003808A000E130A100A930A20036
:1015D000033045060319ED2AEF2A0130F02A0030C6
:1015E000B9003908A30007308E317E268A31080001
:1015F00000302000BB000030BA000030B9000030DD
:10160000B8000030BF000030BE000030BD00003028
:10161000BC00C101C0010130B2003208C107413530
:10162000343E860001308700403FB200413FB300A6
:101630004035343E8600013087003208C03F330811
:10164000C13F3208B4003308B5000030B51BFF308D
:10165000B600B7003408B8073508B93D3608BA3DBA
:101660003708BB3D4135203E860001308700403FB2
:10167000B200413FB3004035203E86000130870074
:101680003208C03F3308C13F3208B4003308B50008
:101690000030B51BFF30B600B7003408BC07350872
:1016A000BD3D3608BE3D3708BF3D0130B2003208AF
:1016B000C00709304002031C5E2B5F2B0B2B01304F
:1016C0009A317A228A3120004135343E8600013039
:1016D00087007108C03F7208C13F7108B2007208EC
:1016E000B3000030B31BFF30B400B5003208B807B8
:1016F0003308B93D3408BA3D3508BB3D00309A3156
:101700007A228A3120004135203E86000130870050
:101710007108C03F7208C13F7108B2007208B3007F
:101720000030B31BFF30B400B5003208BC073308EB
:10173000BD3D3408BE3D3508BF3D0030A700003038
:10174000A6000030A5000A30A4003B08AB003A0810
:10175000AA003908A9003808A8009231D3228A319A
:10176000200025082100D400200024082100D300F7
:1017700000302000A7000030A6000030A5000A308D
:10178000A4003F08AB003E08AA003D08A9003C08A1
:10179000A8009231D3228A31200025082100D200EE
:1017A000200024082100D100080001302000C600DC
:1017B00046082100DB070A305B06031DE02BE12B06
:1017C000062CDB019D3193258B31903134208B31F8
:1017D0002000B80121003D082000BA0021003C088B
:1017E0002000B900BB0100309C31AD248B312000BA
:1017F000B80121003B082000BA0021003A0820006F
:10180000B900BB010630873198278B31FB302000AF
:101810006406031D0C2C0D2C1C2C0130C600460840
:101820002100D80704305802031C172C182C192C3F
:10183000D8018A3121228B31503020006406031DEB
:10184000222C232C982C2830E40221005508031D5B
:101850002A2C2B2C302C580803192F2C302C3A2CE6
:1018600055080319342C352C492C5803031D392CE9
:101870003A2C492C5608031D3E2C3F2C422CD601F5
:10188000D60A492C56357F392000C600460821006B
:10189000D6005508031D4D2C4E2C532C580303190C
:1018A000522C532C5D2C55080319572C582C6C2C9A
:1018B0005808031D5C2C5D2C6C2C5708031D612CF3
:1018C000622C652CD701D70A6C2C57357F39200044
:1018D000C60046082100D70002305806031D712CAF
:1018E000722C802C5508031D762C772C7A2CD50170
:1018F000D50A7B2CD501FF302000C6004608E40045
:10190000033021005806031D862C872C922C5A0880
:10191000F4005908F300A6319C268B31A5315C25D3
:101920008B311A2D8A3121228B319031B4208B31A9
:101930002000C70121005508031D9F2CA02CA52CB9
:1019400058080319A42CA52CAF2C55080319A92C51
:10195000AA2CD42C5803031DAE2CAF2CD42C34034A
:10196000031DB32CB42CBE2C56080319B82CB92C6B
:10197000BB2C0130D6022000C701C70A2000630338
:10198000031DC32CC42CD42C7F3021005602031815
:10199000CA2CCB2CD12C01302000C60046082100D7
:1019A000D6072000C701C70A21005508031DD92CFE
:1019B000DA2CDF2C58030319DE2CDF2CE92C550818
:1019C0000319E32CE42C0E2D5808031DE82CE92CF8
:1019D0000E2D3403031DED2CEE2CF82C57080319A3
:1019E000F22CF32CF52C0130D7022000C701C70AD6
:1019F00020006303031DFD2CFE2C0E2D7F302100E3
:101A000057020318042D052D0B2D01302000C600B0
:101A100046082100D7072000C701C70A2000470851
:101A20000319132D142D1A2D9031B4208B318A31C6
:101A300021228B3108009D3193258D319031342046
:101A40008D3121003B08803A2000D50080305502BE
:101A5000031D2D2D053021003A02031C302D312DA0
:101A6000472D21004303031D362D372D472D4508F3
:101A70005C06031D3D2D44085B06031D402D412DD2
:101A8000442DA53170258D312100DB01DC012100C1
:101A90004303031D4C2D4D2D952D46030319512D48
:101AA000522D952D5C08803A2000D5002100450874
:101AB000803A20005502031D602D210044085B027E
:101AC0000318632D642D952D01302000D500550895
:101AD0002100DD0764305D06031D6F2D702D952DEF
:101AE000DD010130DB070030DC3D45085C06031DED
:101AF0007B2D44085B06031D7E2D7F2D952D98318F
:101B000004208D312000A001A00AED30A100A830F2
:101B1000A200A30180308E317E268D310030F3008B
:101B2000F400A6319C268D31952D21005C08803A69
:101B30002000D50021004508803A20005502031DF1
:101B4000A42D210044085B02031CA72DA82DAE2D57
:101B5000210043030319AD2DAE2D742E013020005A
:101B6000D50055082100D8070A305806031DB92DA5
:101B7000BA2DD92DD8013B08803A2000D5008030FD
:101B80005502031DC62D013021003A020318C92D4C
:101B9000CA2DD12D210059085A040319D02DD12D59
:101BA000D92D21003B08DA003A08D90088318B2072
:101BB0008D3121004203031DDE2DDF2D1B2E460338
:101BC0000319E32DE42D1B2E3B08803A2000D5009D
:101BD00080305502031DEF2D013021003A02031C15
:101BE000F22DF32D1B2E21003D08803A2000D50058
:101BF00021004108803A20005502031D022E2100D9
:101C000040083C02031C052E062E1B2E3D302000F2
:101C1000DD00A930DE005E08D6005D08D500023088
:101C20005507840056080318560A8500013F8A00AC
:101C3000003F0A008E31FB3020006406031D212E78
:101C4000222E472E21004603031D272E282E312E3B
:101C5000C6014808F4004708F300A6319C268D31E0
:101C6000362E3D302000DD00A930DE0020005E0869
:101C7000D6005D08D50002305507840056080318C9
:101C8000560A8500013F8A00003F0A008E3150301D
:101C900020006406031D4D2E4E2E7D2E210046038E
:101CA000031D532E542E5D2EC6014808F40047082C
:101CB000F300A6319C268D31622E7F302000DD009E
:101CC000A930DE0020005E08D6005D08D500023095
:101CD0005507840056080318560A8500013F8A00FC
:101CE000003F0A008E317D2E20006403031D792EF3
:101CF0007A2E7D2EA53170258D3108002000AB0095
:101D000023080319842E852E8A2EFF30A400240870
:101D1000B3008B2EB3012035A4002408AC00803022
:101D20002B06031D942E952ECD2EB0012208B50052
:101D30002108B400A32E0130A4002408B00701300C
:101D4000B4070030B53D3408840035088500120022
:101D5000031DAB2EAC2E9B2E0C30A4002408F100EA
:101D60003008A63104268E312000A5002508B000D9
:101D70000230F1000030F2008030A400300824026C
:101D8000F300F401031CF4039E314A268E317108DE
:101D90002000A5002508AF00D92E0C30A40024088F
:101DA000F1002B08A63104268E312000A50025085D
:101DB000AF002F08A4002408F4002C089831D92083
:101DC0008E3120002208B5002108B400612F3408AC
:101DD0008400350885000008E03EF100FF3003185C
:101DE0000030F2000530F3000030F400A731352751
:101DF0008E3172082000AE007108AD00B1013108CB
:101E0000A400A501FF30A6008330A7002408260700
:101E1000A8002508273DA90028082D0784002908C7
:101E20002E3D85000008AA002A08B700B613B71D8A
:101E30001A2FB61720003613371D1F2F3617200014
:101E4000B612371D242FB61620003612B71C292FC4
:101E500036162000B611B71C2E2FB61520003611ED
:101E6000371C332F36152000B610371C382FB61408
:101E70002000361036083306A4002408B6003608C1
:101E80009A31B3228E31200036089A31B3228E3136
:101E900001302000A4002408B10705303102031CE2
:101EA000522F532FFF2E33089A31B3228E31200048
:101EB00033089A31B3228E3101302000B40700304C
:101EC000B53D34088400350885001200031D692FD4
:101ED0006A2FE72E2F08A4002408F4002C08013EE6
:101EE0009831D9208E3120002208B5002108B40095
:101EF000F32F34088400350885000008E03EF10027
:101F0000FF3003180030F2000530F3000030F40019
:101F1000A73135278E3172082000AE007108AD0060
:101F2000B2013208A400A501FF30A6008330A7004B
:101F300024082607A8002508273DA90028082D0702
:101F4000840029082E3D85000008AA002A08B70051
:101F5000B6133613371FAD2F36172000B612371FB2
:101F6000B22FB61620003612B71EB72F3616200035
:101F7000B611B71EBC2FB61520003611371EC12F63
:101F800036152000B610371EC62FB61420003610A6
:101F9000B71DCB2F3614200036083306A4002408C2
:101FA000B60036089A31B3228E31200036089A31B5
:101FB000B3228E3101302000A4002408B20705307E
:101FC0003202031CE42FE52F912F33089A31B322FC
:101FD0008E31200033089A31B3228E310130200037
:101FE000B4070030B53D3408840035088500120080
:101FF000031DFB2FFC2F792FA531B3258E3108004F
:102002000330FA007A082000A000BB30A100A930FA
:10201200A2002100590803190F28112801301228A3
:102022000030FB007B082000A30000308E317E26AA
:1020320090310330FA007A082000A000E130A100BC
:10204200A930A20021005903031928282A280130A7
:102052002B280030FB007B082000A30007308E31C4
:102062007E26903108002000B201B30121005408FD
:10207200803AFA0080307A02031D4128643053020C
:10208200031C44284528AB2821005208803AFA0054
:102092005408803A7A02031D50285308510203184B
:1020A20053285428A6281730BA3E860087011930D3
:1020B200BA3E84008501403F00022000A4000131A5
:1020C200413F003BA500A601A51BA6032608A700C9
:1020D2001730BA3E860087011930BA3E8400850166
:1020E200403F0007F1000131413F003DF200F301A2
:1020F200F21BF3037308F4000030F8000030F7001D
:102102000030F6006430F5009931D6219031740820
:102112002000AB007308AA007208A9007108A80089
:102122009231D322903120002508B3002408B20056
:102132003308803AFA0083307A02031DA228E8307D
:102142003202031CA528A628AB28E7302000B200E3
:102152000330B300200033082100BD002000320804
:102162002100BC00080021005708F1007108F200AC
:102172007218BC28BF2822008D15C12822008D119B
:10218200F218C428C72822000C15C92822000C11F5
:102192007219CC28CF2822000D16D12822000D1248
:1021A200F219D428D72822008C15D92822008C11A4
:1021B200721ADC28DF2822008D16E12822008D12F7
:1021C200F21AE428E72822008C16E92822008C1251
:1021D200721BEC28EF2822000C16F12822000C12A8
:1021E20021005608F1007108F2007218F928FC2843
:1021F20022008E17FE2822008E13F21801290429CC
:1022020022008E15062922008E11721909290C2925
:1022120022000E170E2922000E13F2191129142979
:1022220022000E15162922000E11721A19291C29D4
:1022320022008E161E2922008E12F21A212924292A
:1022420022008E14262922008E10721B29292C2985
:1022520022000E162E2922000E122100550C2200F9
:10226200031C0E1003180E14080099313721913106
:102272009E31A9269131A53194259131A631582656
:102282009131F430F1000130F200A631E5269131AE
:10229200FA01783094319B2491312000A001223040
:1022A200A100A930A200A30180308E317E26913197
:1022B2002000A001A00A1A30A100A930A200A301A7
:1022C20080308E317E26913102302000DC005C08A5
:1022D200A000B530A100A930A200A30180308E3148
:1022E2007E269131DC30F1000530F200A631E52680
:1022F2009131983104209131A5315C259131A03082
:10230200F5000130F6000A302000DC005C08F7001E
:102312000030A7317427913123002108F4002008EE
:10232200F300A6319C2691312100380839060319A1
:102332009B299C29AB2901302000DC005C0821008C
:10234200B80701302000DC005C082100B7078A31A1
:10235200F82291310A3021003706031DB129B22932
:102362009529B7019D31EE259131A731B6279131DB
:10237200640095298031132801302100DB070030E9
:10238200DC3D01305C02F43003195B02031CCA29F4
:10239200CB29CF29A5315C259131442AFB3020007D
:1023A2006406031DD529D629202A2100DB01DC0180
:1023B2005A0859022000BE003E08C1000A2A013014
:1023C2002000BE003E082100D9071D2A21005A081C
:1023D200043E2000BE00003003180130BF003F0859
:1023E200803AC00080304002031DFB2921005808BA
:1023F20020003E020318FE29FF29E02901302000B7
:10240200BE003E082100DA07E0292100DA01D901E5
:102412001D2A4108BE00BF013F08003A0319122AD3
:10242200062A3E08003A0319E029013A0319E7296E
:10243200033A0319E029062A9B31E22391315030F5
:1024420020006406031D262A272A442A2100593522
:102452005D072000BE003E08860001308700403F35
:10246200DD00413FDE005E08BF005D08BE000230B5
:102472003E0784003F0803183F0A8500013F8A0097
:10248200003F0A0092310800210058082000B800DD
:102492003808BE0021005903031D502A512A662A1A
:1024A2002000A001D930A100A930A2003E080319E2
:1024B2005B2A5D2A01305E2A0030B8003808A3008A
:1024C20007308E317E2692317A2A2000A001DD303B
:1024D200A100A930A2003E080319702A722A013015
:1024E200732A0030B8003808A30007308E317E26E8
:1024F200923121005B082000A10021005A0820002F
:10250200A0003A30B8003808A2000430B9003908F7
:10251200A3008831002092312000A001A00A3A30A5
:10252200A1000030A2003E030319982A9A2A013022
:102532009B2A0030B8003808A30007308E317E266F
:10254200923103302000B8003808A000BB30A1004F
:10255200A930A20002303E060319B02AB22A013085
:10256200B32A0030B9003908A30000308E317E262C
:10257200923103302000B8003808A000E130A100F9
:10258200A930A20003303E060319C82ACA2A013024
:10259200CB2A0030B9003908A30007308E317E26DD
:1025A200923108002000AD01A71FD82AD92AE62AB5
:1025B200A409A509A609A709A40A0319A50A0319CA
:1025C200A60A0319A70AAD01AD0AAB1FE92AEA2A36
:1025D200F92AA809A909AA09AB09A80A0319A90A8B
:1025E2000319AA0A0319AB0A0130F9007908AD06EA
:1025F2000030B1000030B0000030AF000030AE005B
:1026020027082604250424040319082B092B4A2B26
:10261200AC01AC0A172B0130A435A50DA60DA70DF0
:10262200890B0D2B0130F9007908AC07A71F1A2B73
:102632001B2B0C2B0130AE35AF0DB00DB10D890B3C
:102642001C2B27082B02031D302B26082A02031DF0
:10265200302B25082902031D302B24082802031CD5
:10266200332B342B3D2B2408A8022508A93B26082E
:10267200AA3B2708AB3B2E140130A736A60CA50CAB
:10268200A40C890B3E2B0130AC02031D492B4A2BB3
:102692001B2B2D0803194E2B4F2B5A2BAE09AF09BA
:1026A200B009B109AE0A0319AF0A0319B00A031936
:1026B200B10A3108A7003008A6002F08A5002E088D
:1026C200A4000800210058082000C4004408C600E5
:1026D20021005D03031D6E2B6F2B842B2000A001B4
:1026E200D930A100A930A20046080319792B7B2B0F
:1026F20001307C2B0030C4004408A30007308E3127
:102702007E269331982B2000A001DD30A100A93054
:10271200A200460803198E2B902B0130912B00301A
:10272200C4004408A30007308E317E269331200076
:10273200B801B80A21005C082000BA0021005B0839
:102742002000B90046030319A72BA92B0130AA2B9D
:102752000030C4004408BB0006309C31AD249331E4
:1027620002302000C4004408B80021005A082000AA
:10277200BA00210059082000B900023046060319A8
:10278200C32BC52B0130C62B0030C5004508BB004A
:1027920006309C31AD24933103302000C40044083C
:1027A200A000BB30A100A930A200033046060319E5
:1027B200DB2BDD2B0130DE2B0030C5004508A300EA
:1027C20000308E317E26933103302000C40044084D
:1027D200A000E130A100A930A2000430460603198E
:1027E200F32BF52B0130F62B0030C5004508A30072
:1027F20007308E317E2693310800FB3020006406BC
:10280200031D042C052C142C0130BF003F082100AD
:10281200D80704305802031C0F2C102C112CD8019D
:10282200923145229331503020006406031D1A2C48
:102832001B2C9A2C2830E40221005808031D222C5C
:10284200232C2F2C5903031D272C282C2A2CD90189
:102852002C2CD901D90A92314522933121005803F7
:10286200031D342C352C662C5B08803A2000BF00F7
:1028720080303F02031D402C643021005A02031CA9
:10288200432C442C4A2C0F302100DA070030DB3D68
:102892004F2C05302100DA070030DB3D5B08803A1F
:1028A2002000BF0081303F02031D5A2C2D30210031
:1028B2005A02031C5D2C5E2C632C05302100DA00C9
:1028C2000030DB009231452293310230210058065C
:1028D200031D6C2C6D2C932C5B08C5005A08C40098
:1028E20059082000BF003F082100C300C430200067
:1028F200BF003F08F5000230C0004008F6006C300F
:10290200A73195279331C3302000BF003F08F5005F
:10291200F601F60A7230A73195279331A5315C256D
:1029220093319A2C03305806031D982C992C9A2C1B
:102932008F2C08002000A0002008FB007B08E50087
:102942007A08FB007B082100B6000D178D172200C4
:102952000D138D130630890BAC2C0032A631CC2618
:102962009431200065089A31B322943100309A31B3
:10297200B3229431AE309A31B3229431D5309A31A8
:10298200B322943180309A31B3229431A8309A31F3
:10299200B32294313F309A31B3229431D3309A31F9
:1029A200B322943100309A31B322943140309A31BB
:1029B200B32294318D309A31B322943114309A314A
:1029C200B322943181309A31B3229431FF309A315B
:1029D200B3229431D9309A31B3229431F1309A3101
:1029E200B322943120309A31B322943102309A3199
:1029F200B322943121309A31B322943100309A318A
:102A0200B32294317F309A31B32294312E309A31ED
:102A1200B322943121003603031D102D112D1A2DDE
:102A2200A0309A31B3229431C0309A31B32294311A
:102A3200222DA1309A31B3229431C8309A31B32277
:102A42009431DA309A31B322943112309A31B3226E
:102A52009431DB309A31B322943140309A31B3222F
:102A62009431A4309A31B3229431A6309A31B322F0
:102A72009431A531B3259431983104209431080062
:102A820020003208F1003308F200890D893B8909E0
:102A9200F300F4000030F8000030F700C330F60015
:102AA2005030F5009931D621953174082000BF00CD
:102AB2007308BE007208BD007108BC000030A70098
:102AC2000030A6000030A5000230A4003F08AB0091
:102AD2003E08AA003D08A9003C08A8009231D32272
:102AE200953120002708C3002608C2002508C1002E
:102AF2002408C0000030C7000030C6000030C50006
:102B02000030C400D02D4308C7004208C600410867
:102B1200C5004008C4004708A7004608A6004508AB
:102B2200A5004408A4003F08AB003E08AA003D08E7
:102B3200A9003C08A8009231D32295312000240834
:102B42004407B4002508453DB5002608463DB600B9
:102B52002708473DB7003708BB003608BA003508DA
:102B6200B9003408B8000030A7000030A6000030D9
:102B7200A5000230A4003B08AB003A08AA003908BD
:102B8200A9003808A8009231D322953120002708E5
:102B9200C3002608C2002508C1002408C000470857
:102BA2004306031DDE2D46084206031DDE2D4508A1
:102BB2004106031DDE2D44084006031DE12DE22DD2
:102BC200842D4108B3004008B200080020006408C8
:102BD200031DEC2DED2DF22D2830C30043082100FA
:102BE200DA00FB3020006406031DF82DF92D082EB3
:102BF2000130C30043082100D9070A305902031CDF
:102C0200032E042E052ED9018931562195315030DB
:102C120020006406031D0E2E0F2E932E21005A084B
:102C22002000E4020B3021005A02031C192E1A2E36
:102C32001C2E0530DA02083059020318212E222EEA
:102C4200632E5908DD3E8600870101082000C3007B
:102C52004308C600C701312E0130C3004308C7072D
:102C62004708003E8400A0300318013E850000089A
:102C7200460603193D2E3E2E442E49304702031CC0
:102C8200432E442E2D2E0130C3004308C70748307F
:102C92004702031C4D2E4E2E4F2EC7014708003E01
:102CA2008400A0300318013E85000008C300210003
:102CB2005908DD3E860087012000430881008931E2
:102CC20056219531083021005906031D692E6A2EBE
:102CD2008C2EA631FF26953172082100DC00710886
:102CE200DB00DB302000C3004308F5000A30C400DB
:102CF2004408F6000A30C5004508F10021005808D2
:102D0200A63104269531003EA73195279531A5318C
:102D12005C259531932E09305906031D912E922E72
:102D2200932E882E080001302100D8070030D93DAB
:102D320001305902F43003195802031CA12EA22EAD
:102D4200A62EA5315C259631452FFB302000640666
:102D5200031DAC2EAD2EF22E2100D801D9015C0844
:102D62005A022000CA004A08CD00DF2E013020009E
:102D7200CA004A082100DA07EF2E21005C08033E50
:102D82002000CA00003003180130CB004B08803A03
:102D9200CC0080304C02031DD02E0A304A020318A8
:102DA200D32ED42EB72E01302000CA004A082100AB
:102DB200DC07B72E2100DC01DA01EF2E4D08CA0034
:102DC200CB014B08003A0319E72EDB2E4A08003AE2
:102DD2000319B72E013A0319BE2EDB2E9F31192794
:102DE2009631503020006406031DF82EF92E452F2F
:102DF20021005B03031DFE2EFF2E262F5A08031D02
:102E0200032F042F0A2F31302000DD00A930DE000D
:102E1200152F5A082000CA004A082100D80037306E
:102E22002000DD00A930DE005E08CB005D08CA008C
:102E320002304A0784004B0803184B0A8500013F01
:102E42008A00003F0A009731452F4E30F5000030CE
:102E5200F6000A302000CA004A08F7000A30CB0008
:102E62004B08F10021005A08A63104269631003E93
:102E7200A7317427963120004F08F4004E08F30062
:102E8200A6319C269631A22E0800FB302000640653
:102E9200031D4C2F4D2F5C2F0130C7004708210026
:102EA200D80705305802031C572F582F592FD80125
:102EB200933163239731503020006406031D622F43
:102EC200632FFF2F2830E40221005808031D6A2FC8
:102ED2006B2F772F5D03031D6F2F702F722FDD0174
:102EE200742FDD01DD0A93316323973121005803EA
:102EF200031D7C2F7D2F982F0530DB070030DC3D32
:102F02005C08803A2000C70080304702031D8C2FE6
:102F1200C93021005B02031C8F2F902F952F783030
:102F22002100DB000030DC00933163239731023053
:102F320021005806031D9E2F9F2FBA2F0530D90757
:102F42000030DA3D5A08803A2000C700803047023C
:102F5200031DAE2F973021005902031CB12FB22F4F
:102F6200B72F64302100D9000030DA009331632397
:102F72009731033021005806031DC02FC12FF82FAF
:102F82005D082000C70047082100C2005C08C1009C
:102F92005B08C0005A08BF005908BE00BE302000BE
:102FA200C7004708F5000230C8004808F600703034
:102FB200A73195279731C0302000C7004708F50098
:102FC2000230C8004808F6006E30A73195279731C5
:102FD200C2302000C7004708F500F601F60A733038
:102FE200A73195279731A5315C259731FF2F043002
:0E2FF2005806031DFD2FFE2FFF2FF42F0800A1
:10300800A53144259831F901F40179089831D9207E
:103018009831F80100309A31B32298310130F70025
:103028007708F80780307802031C1B281C280E2814
:103038000130F7007708F90708307902031C2528C2
:1030480026280828A531B3259831A5314925983176
:103058000800F40023009518322833282E28740815
:10306800F200F3017208910073089200710893004E
:103078003F30F20072089505200003108B1F452889
:103088004628472803148B1323001515553096003E
:10309800AA309600951415112000031C54285528B1
:1030A80056288B17080020006208FA007A08FB00EF
:1030B80002307B06031D612862286D28210059080B
:1030C8000319672868286B28D901FB016D28D901E5
:1030D800D90A0230FA007A082000A0007B35483E61
:1030E800860001308700403FA100413FA200A301B4
:1030F80080308E317E26983108009831042098312E
:10310800A531542598312000A0019130A100A930A3
:10311800A200A30100308E317E2698312000A00144
:10312800A00A9730A100A930A200A30100308E3177
:103138007E2698312100D8014308FA007A08D90080
:103148004508DB004408DA0092314522983108002E
:1031580080314A20983101302000C0004008210009
:10316800D80732305806031DBA28BB28BF28D80113
:1031780098315720983120006403031DC428C528BE
:10318800D12821005B08F4005A08F300A6319C26D8
:103198009831A5315C259831D82805306206031D81
:1031A800D628D728D828CD280800F600A631CC265E
:1031B8009831200065089A31B322983100309A314D
:1031C800B32298317608B03E9A31B3229831740808
:1031D8000F399A31B32298317408F5000430F53666
:1031E800890BF3287508103E9A31B3229831A6311D
:1031F800CC269831200065089A31B32298314030A6
:103208009A31B32298310800983104209931A531B8
:10321800542599312000A001E530A100A930A20071
:10322800A30100308E317E2699312000A001A00A2A
:10323800E930A100A930A200A30100308E317E261A
:1032480099312100D801FF30D900FF30DA00DD01C3
:10325800DB01DC01A631FF26993172082100DF006D
:103268007108DE0008007A302100990022008C01E4
:103278008D018E0120001C08FC3902389C00873023
:103288009C05FA309B00210091140B1720001C1597
:103298008B17C03023008D05220091139313210052
:1032A8008E138E110E130E118E128E100E120E101A
:1032B8008D110C110D128C118D128C120C12D7015C
:1032C800D601D5016430BE000030BF009513080058
:1032D800F701F801F9010130F300790A7429F3358F
:1032E800890B732973082100560503197C297D2948
:1032F80092297908F300F401F335F40D0E307307C1
:103308008400A830743D8500003FF500013FF600B9
:1033180077087507F7007808763DF8000130F30064
:103328007308F90707307902031C9B299C296F2928
:103338007808F2007708F1000800F701F801F901B0
:103348000130F300790AA929F335890BA8297308F4
:10335800210057050319B129B229C7297908F300B3
:10336800F401F335F40D003073078400A830743D80
:103378008500003FF500013FF60077087507F70064
:103388007808763DF8000130F3007308F907073034
:103398007902031CD029D129A4297808F2007708DA
:1033A800F100080000302000A3000030A200003027
:1033B800A1000030A000711CE229E329EC2975085E
:1033C8002000A0077608A13D7708A23D7808A33D14
:1033D8000130F535F60DF70DF80D890BED290130A3
:1033E800F436F30CF20CF10C890BF429740873040D
:1033F80072047104031D012A022ADF292000230810
:10340800F4002208F3002108F2002008F100080067
:103418002000AC00073027020318132A142A152AA3
:10342800422A99316C219A3172082000AB00710848
:10343800AA002B08A1002A08A0002C08A800280828
:10344800A2000530A9002908A300883100209A317C
:1034580070302000A8002C08043E86008701280848
:1034680081004630A8002C08053E86008701280800
:1034780081002C08063E8600870181010800200093
:10348800AC000730270203184A2A4B2A4C2A792A0B
:103498009931A1219A3172082000AB007108AA0065
:1034A8002B08A1002A08A0002C08A8002808A200C0
:1034B8000530A9002908A300883100209A316E3010
:1034C8002000A8002C08043E8600870128088100F7
:1034D8004830A8002C08053E86008701280881008E
:1034E8002C08063E86008701810108002000A00004
:1034F8002008F300F30DF30D21001D08730683392E
:1035080073069D000630890B872A003221009D141E
:103518009D188F2A902A8C2A1C08F300F40173083E
:103528002000A1007408A20021001B08F300F40188
:1035380020002208F6002108F5007508F600F501BC
:1035480073087507F8007408763DF900F835F90D29
:10355800F835F90D7808F1007908F2000800F20052
:10356800F301F21BB82AB92ABC2A21008D13BE2AFE
:1035780021008D170630890BBF2A003221000D1754
:103588000630890BC52A003221000D130630890B3D
:10359800CB2A00327235F1007108F2000130F100D7
:1035A8007108F30708307302031CDB2ADC2AB52AEA
:1035B80021008D170630890BDF2A003221000D17F4
:1035C8000630890BE52A003221000D130630890BDD
:1035D800EB2A00320800983104209A312000A0011B
:1035E8000830A100A930A200A30180308E317E26C8
:1035F8009A312000A001A00AFF30A100A830A20043
:10360800A30180308E317E269A310230FA007A0882
:103618002000A000F630A100A930A200A30180304C
:103628008E317E269A310330FA007A082000A000F5
:10363800AF30A100A930A200A30180308E317E26D0
:103648009A31A53154259A312100D8010800FB3060
:1036580020006406031D312B322B412B0130B800AA
:1036680038082100D90702305902031C3C2B3D2B96
:103678003E2BD901903101209B3150302000640647
:10368800031D472B482B662B21005908031D4D2B82
:103698004E2B632BA631FF269B3172082100DB00DD
:1036A8007108DA00DA302000B8003808F5000A306E
:1036B800B9003908F6000030A73195279B31A531AC
:1036C8005C259B310800983104209B31A531542595
:1036D8009B312000A001C530A100A930A200A301A0
:1036E80000308E317E269B312000A001A00A8B304D
:1036F800A100A930A200A30100308E317E269B31A3
:103708000230FA007A082000A000C030A100A930D9
:10371800A200A30100308E317E269B312100D80102
:103728004208FA007A08DD004108DC004008DB00A6
:103738003F08DA003E08D900933163239B31080023
:10374800983104209B31210065082000B900210030
:1037580066082000BA00210067082000BB00A0010D
:10376800A00A3930A1000030A200A30100308E3138
:103778007E269B31DA30F5000030F6000A30200052
:10378800B8003808F7000030A73174279B312100B2
:10379800E4012000A001A00ADC30A1000030A20052
:1037A800A30102308E317E269B312100D901A5313B
:1037B80054259B31903101209B31080021005A0883
:1037C8002000B8003808FA00FB017B08B800380868
:1037D800A0007A3521005D072000B900390886006D
:1037E80001308700403FBA00413FBB003A088400DF
:1037F8003B088500003FA100013FA20021005908B5
:103808007A060319082C0A2C01300B2C00302000F2
:10381800BD003D08A30080308E317E269B310130EB
:103828002000B8003808FA070130B8003808FB074C
:1038380004307B02031C212C222CE92B08000030C9
:103848002000A7000030A600C330A5005030A40017
:10385800A830B4006130B5000030B6000030B700C1
:103868003208F1003308F200890D893B8909F30019
:10387800F4003208F5003308F600890D893B890900
:10388800F700F8009931D6219C3171082000B4075F
:103898007208B53D7308B63D7408B73D3708AB00EC
:1038A8003608AA003508A9003408A8009231D322A6
:1038B8009C3120002508FB002408FA007B08B3008F
:1038C8007A08B2000800210068082000BA00210028
:1038D80069082000BB0021006A082000BC00210004
:1038E8005808303E2000B8003808BA009831042043
:1038F8009C312000A0013A30A1000030A200A301B1
:1039080000308E317E269C31DB30F5000030F60029
:103918000A302000B8003808F7000A30B900390822
:10392800F10021005808A63104269C31003EA73139
:1039380074279C312100D90128302000B8003808AC
:103948002100DA00A53154259C31893156219C315A
:1039580008002000BE0054308600013087003F3048
:103968008400003085000530BC0016001A00BC0B2E
:10397800B92C3A08803ABC0080303C02031DC62CA2
:1039880064303902031CC92CCA2CE32C20003A08E5
:10399800A1003908A0004030BC003C08A200043057
:1039A800BD003D08A300883100209C31200040085C
:1039B800BC003C08BF002E30BC003C08C000200002
:1039C8003808BC003C08A0003F30A1000030A2002D
:1039D8003B08BD003D08A3003E088E317E269C3181
:1039E800080020006403031DFA2CFB2C3F2D210046
:1039F8005808031D002D012D3C2D0130FA007A08CE
:103A0800D807983104209C312000A001E230A100A1
:103A1800A830A200A30180308E317E269C31200080
:103A2800A001A00A1130A100A930A200A301803092
:103A38008E317E269C310230FA007A082000A000E0
:103A4800F630A100A930A200A30180308E317E2675
:103A58009C310330FA007A082000A000A930A100A8
:103A6800A930A200A30180308E317E269C313F2DE3
:103A7800A5315C259C310800F701F41F442D452D24
:103A88004C2DF309F409F30A0319F40AF701F70AAC
:103A9800F21F4F2D502D552DF109F209F10A031986
:103AA800F20A7108720403195A2D5B2D842DF60150
:103AB800F60A672D0130F135F20D890B5F2D0130C3
:103AC800F5007508F607F21F6A2D6B2D5E2D72083A
:103AD8007402031D712D71087302031C742D752D5A
:103AE800792D7108F3027208F43B0130F236F10CBB
:103AF800890B7A2D0130F602031D832D842D6B2D41
:103B080077080319882D892D8E2DF309F409F30AF6
:103B18000319F40A7408F2007308F100080013305E
:103B2800BA3E8600870100302000A7000030A600BA
:103B38001030A5000030A40021004F08F100500803
:103B4800F200890D893B8909F300F4005308F50058
:103B58005408F600890D893B8909F700F800993166
:103B6800D6219D3174082000AB007308AA007208A2
:103B7800A9007108A8009231D3229D31403F20004E
:103B88002407B900413F253DBA003A08B300390877
:103B9800B2009C3123249D3120003308BC00320838
:103BA800BB003C08803AB80080303802031DDE2D87
:103BB80002303B020318E12DE22DE52D2000BB0168
:103BC800BC0120003C082100BB0020003B0821006C
:103BD800BA00080020000D18F22DF32D072EFA3038
:103BE80064020318F82DF92DFD2D0130F10071083C
:103BF800E40750306406031D022E032E222E2100F6
:103C0800B501B50A222E21003508031D0C2E0D2EF4
:103C18001E2E200064080319122E132E1E2EFB30B0
:103C280064020318182E192E1E2EFB30F10071089D
:103C3800E400202E2000E4012100B50120008D18A9
:103C4800262E272E342E0130F1007108E307143098
:103C58006302031C302E312E352EE301E30A352E84
:103C6800E3010D19382E392E472E0130F100710865
:103C78002100B40714303402031C432E442E492E6D
:103C8800B401B40A492E2100B4010800F701F21F5B
:103C98004E2E4F2E562EF109F209F10A0319F20A97
:103CA800F701F70AF41F592E5A2E632EF309F40967
:103CB800F30A0319F40A0130F5007508F706F8014C
:103CC800F9017108720403196A2E6B2E9A2EF601F7
:103CD800F60A772E0130F135F20D890B6F2E01307F
:103CE800F5007508F607F21F7A2E7B2E6E2E01302E
:103CF800F835F90D890B7C2E72087402031D862E87
:103D080071087302031C892E8A2E8F2E7108F30204
:103D18007208F43B78140130F236F10C890B902EBE
:103D28000130F602031D992E9A2E7B2E770803196F
:103D38009E2E9F2EA42EF809F909F80A0319F90AEC
:103D48007908F2007808F1000800BE30F50000306C
:103D5800F60002302000A0002008F7007030A731DC
:103D680074279E31C030F5000030F6000230200084
:103D7800A0002008F7006E30A73174279E31C230AA
:103D8800F5000030F600F701F70A7330A731742701
:103D98009E31C430F5000030F60002302000A0004B
:103DA8002008F7006C30A73174279E31C330F50026
:103DB8000030F600F701F70A7230A73174279E31F8
:103DC800C930F5000030F60002302000A0002008BD
:103DD800F7006A30A73174279E31CB30F5000030E8
:103DE800F60002302000A0002008F7006830A73154
:103DF80074279E31CD30F5000030F60002302000E7
:103E0800A0002008F7006630A73174279E31CF3014
:103E1800F5000030F60002302000A0002008F7006E
:103E28006430A73174279E31080021006B082000F8
:103E3800BA0021006C082000BB0021006D0820009A
:103E4800BC00BE0121005C0820003E07B80038080D
:103E5800BD003D08303EB8003808BA003E08013EB3
:103E6800B8003808A0003A30A1000030A2002100B4
:103E78005A0820003D060319422F442F0130452FD0
:103E88000030B9003908A30000308E317E269F31FA
:103E98003F30F5000030F6000A302000B80038083E
:103EA800F7000A30B9003908F1003D08A6310426A8
:103EB8009F31003EA73174279F312000C9013E0879
:103EC800013EB8003808A0004130A1000030A2002F
:103ED80021005A0820003D060319732F752F013061
:103EE800762F0030B9003908A30002308E317E26C3
:103EF8009F3101302000B8003808BE0703303E0269
:103F0800031C872F882F262F080021006F08200008
:103F1800C80021006E082000C70021005908313E62
:103F28002000C5004508C700A0019D30A100A930A8
:103F3800A200A30100308E317E269F312000A0010F
:103F48004730A1000030A200A30109308E317E263F
:103F58009F312000A001A00A5E30A100A830A20075
:103F6800A30100308E317E269F3102302000C5002B
:103F78004508A000A330A100A930A200A301003089
:103F88008E317E269F3102302000C5004508B800DA
:103F980021005935DA3E86008701403F2000B900EC
:103FA800413FBA00210058080319DB2FDD2F0130EB
:103FB800DE2F00302000C6004608BB0006308731DF
:103FC80098279F3103302000C5004508A000E13044
:103FD800A100A930A200210058030319F42FF62FDD
:103FE8000130F72F00302000C6004608A300073034
:103FF8008E317E269F3108002034303431343234FB
:10400800333434343534363437343834393461342D
:1040180062346334643465346634673468346934CC
:104028006A346B346C346D346E346F34703471347C
:10403800723473347434753476347734783479342C
:104048007A34413442344334443445344634473472
:10405800483449344A344B344C344D344E344F345C
:10406800503451345234533454345534563457340C
:10407800583459345A343F3421342F342B342D34A6
:0A4088002334253424345F3400345F
:104A8800AE30A531DA25A5310800AF30A531DA25D9
:104A9800A5310800640080010131890B4F2D0034D5
:104AA800FF30F10071082000E4002100B501080082
:104AB80085302000DD00A930DE0099310821A531BC
:104AC800080030343A34003430343A340034303466
:104AD8003A3400342034003421005F08F4005E08C2
:104AE800F300A6319C26A53199310821A53108008B
:104AF8002100DA01DC01D801D9019F311927A5313C
:104B0800A5315425A53108000030F300F400A63182
:104B18009C26A5312100C601A5315C25A5310800D8
:104B280021000D1424000D1421008D1424008D146F
:104B380021000D1524000D1508002000E201E20AED
:104B48002100B201B101D501D601D7019031B420BD
:104B5800A5310230F30073082100B10008002100DC
:104B68008D130630890BB62D003221000D17063043
:104B7800890BBC2D003221008D170630890BC22D00
:104B88000032080098310420A5312000A001B63079
:104B9800A100A830A200A30100308E317E26A531E5
:104BA8002100DB01A5317C25A5310800F400A631E0
:104BB800CC26A531200065089A31B322A531803072
:104BC8009A31B322A53174089A31B322A531A5319F
:104BD800B325A5310800F400640023009518F52DCD
:104BE800F62DF02D7408F100F20171089100720899
:104BF80092003F30F3007308950515141308080058
:104C0800F400F301741C092E0A2E0E2E7108F2000E
:104C18007208F3070310F10D0310F40C7408031D58
:104C2800162E172E062E730808002100C601C60A84
:104C3800A631FF26A63172082100C8007108C700F6
:104C48000030F300F400A6319C26A631A5315C257E
:104C5800A631080098310420A6312000A001C130F7
:104C6800A100A830A200A30100308E317E26A63113
:104C78002100DB01DB0AA5317C25A631080098312B
:104C88000420A6312100D801D9014A08DB004908CF
:104C9800DA004C08DD004B08DC00A5315425A631AC
:104CA8009F318927A631080021000C1423000C1419
:104CB80021008C1423008C148330220097002100DB
:104CC8009E171E088F3920389E001E1103309E043F
:104CD8001D14080098310420A631A5315425A631A9
:104CE8002100D901DA01DB01DC010630FA007A087B
:104CF800D8005930FA007A08DD009B31E223A6314A
:104D0800080098310420A631A5315425A631210088
:104D1800D901DA01DB01DC010430FA007A08D80095
:104D28006530FA007A08DD009B31E223A6310800DD
:104D3800F41F9F2EA02EA42E2100D501D50AA62E41
:104D48002100D50174087F39F5007508D60073086D
:104D58007F39F5007508D7009031B420A6310800D6
:104D68002000BB003908FA007A08BC00BD013808E9
:104D7800FA007A08A0003C30A1000030A2003A08EE
:104D8800FB007B08A3003B088E317E26A631080075
:104D980021000D170630890BCF2E003221008D1708
:104DA8000630890BD52E003221008D130630890B71
:104DB800DB2E003221000D130630890BE12E003264
:104DC80008007208F5007108F4006400F82E063037
:104DD800F3003030890BEE2EF30BEE2E0032640018
:104DE8000130F4020030F53B74087504031DFD2EF4
:104DF800FE2EEB2E080021005708F300F401560898
:104E0800F500F6017508F600F50173087507F80056
:104E18007408763DF90055080319132F142F152F20
:104E2800F9177908F2007808F10008009831042091
:104E3800A731A5315425A7312100D801A631FF2675
:104E4800A73172082100DA007108D900DB01D50109
:104E5800D601D7019031B420A7318A312122A73158
:104E68000800F501F601711C3A2F3B2F3F2F7308FC
:104E7800F5077408F63D0130F335F40D890B402F22
:104E88000130F236F10C890B452F71087204031DAD
:104E98004E2F4F2F372F7608F2007508F1000800C3
:104EA80098310420A731A5315425A7312000A0014D
:104EB8002A30A100A930A200A301A30A80308E31B4
:104EC8007E26A7312100D901A631FF26A731720815
:104ED8002100DB007108DA00A531A125A7310800FF
:104EE800F9007608FB007508FA008F2F7908A531BC
:104EF800EF25A731F8007A0886007B088700780834
:104F080081000130F7020130F8007808F907013014
:104F1800FA070030FB3D7708031D932F942F7A2F53
:104F28000800F8007508F7007708F900B02F79082D
:104F3800860087010108F7007708F10078089831A2
:104F48002D20A7310130F6020130F7007708F80765
:104F58000130F7007708F9077608031DB42FB52F3D
:104F68009B2F080020005E08D9005D08D800043097
:104F78005807840059080318590A85001200DA00F6
:104F88001200DA040319C92FCA2FDA2F5E08D900D4
:104F98005D08D80004305807840059080318590AD6
:104FA8008500013F8A00003F0A00A73108006934E4
:104FB800A8345E34A8345334A8344834A8343D3473
:104FC800A8343234A83430342E34303430340034F9
:104FD8007334A9346134A9346734A9346D34A934DD
:104FE8007934A9345B34A9345534A9344F34A934FD
:104FF8004334A9344934A934323400346434003495
:10500800DC340034C2340134E834033498340834CE
:10501800303411340A340034163400342F34003458
:1050280064340034DC340034D6340134E8340334D6
:105038000034013402340434083410342034403449
:10504800603470347F34003401340234043408345A
:10505800103420344034603470347F3420342034A9
:105068005234653461346434793420342034203443
:105078000034203450345734523420346C346F3474
:1050880077342034203400342034203442347234CD
:10509800653461346B3420342034203400342034B7
:1050A800523475346E346E3469346E346734203457
:1050B80020340034773461346934743420346634ED
:1050C8002E342034483446340034203420342034FC
:1050D8002034203420342034203420342034003448
:1050E800413462346F3475347434203420342034BD
:1050F80020342034003453346534743475347034B7
:1051080020342034203420342034003443346134B3
:105118006C346934623472346134743465342034E4
:1051280000345434653473347434203420342034D7
:10513800203420342034003453346C3465346534DE
:105148007034203420342034203420340034543453
:1051580075346E3469346E34673420342034203426
:10516800203400344C346F34613464342034543483
:1051780075346E34653420340034533461347634F5
:1051880065342034543475346E3465342034003436
:1051980042347934703461347334733420342034B5
:1051A8002034203400345234653473346534743414
:1051B80020342034203420342034003459346534E9
:1051C800743441346E346F347434683465347234F2
:1051D800003473346C3465346534703469346E3437
:1051E8006734003420344234793470346134733491
:1051F8007334203400346434653473346934673468
:105208006E34653464340034483461347234643440
:105218007734613472346534003446346934723416
:105228006D3477346134723465340034453458341D
:1052380054342D34593441344634003441345434D0
:1052480055342D343134303430340034203454342F
:1052580075346E3465342034003400340034A4349A
:105268001B342B341B340034003467341C34E734CB
:1052780015340034003454342734AC3418348A34A8
:10528800A83443342634DF3405349534A8341A342A
:105298002734D5340B34A034A83481341834FE3480
:1052A8001334AB34A83467341B344634173474349D
:1052B800A834EF341A34F5341C34B634A834C63460
:1052C800253494341634C134A8342E342634943416
:1052D8001634D734A8348834253400340034CC3418
:1052E800A83419342634003400347F34A834853483
:1052F8002634BD341134003400346E342634BD34C1
:10530800113400340034083419341B340D34533448
:105318007434613472347434003453346C34653406
:10532800653470340034443465346C346134793411
:10533800003450346F3469346E347434003450346B
:105348006F34773465347234003444344734343439
:1053580053344E3400344E343734443444344334B4
:105368000034563430342E34363438340034533420
:105378006134763465340034533474346F347034A3
:1053880000344134753474346F3400344134553446
:1053980054344F3400343E344C342D3443340034C8
:1053A8003E3443342D344C34003420344F346E347E
:1053B80000344F346634663400344534733463340F
:1053C8000034503457345234003453345734523440
:1053D80000344F346B34003443343D3400344C349F
:0A53E8003D3400346234793400349F
:020000040001F9
:08000000FF3FFF3FFF3FFF3F00
:04000E00FF3FFF3F72
:10E00000000000005300740061007200740075008D
:10E0100070002000000000002000200020002000F0
:10E020002000200020002000000000002000200030
:10E030002000200020002000200020000000000020
:10E0400020002000200020002000200020002000D0
:10E050000000000020002000200020002000200000
:10E0600020002000000000002000200020002000F0
:10E0700020002000200020000000000020002000E0
:10E0800020002000200020002000200000000000D0
:10E090002000200020002000200020002000200080
:10E0A00000000000200020002000200020002000B0
:10E0B00020002000000000002000200020002000A0
:10E0C0002000200020002000E0002E00960000002C
:10E0D0001E0000000A0000001E0000008C0000006E
:08E0E0007800000000000000C0
:00000001FF
